{
  "address": "0x5FC8d32690cc91D4c39d9d3abcBD16989F875707",
  "abi": [
    {
      "inputs": [
        {
          "internalType": "address[]",
          "name": "_tokenAddresses",
          "type": "address[]"
        },
        {
          "internalType": "address[]",
          "name": "_priceFeedAddresses",
          "type": "address[]"
        },
        {
          "internalType": "address",
          "name": "_pdAddress",
          "type": "address"
        }
      ],
      "stateMutability": "nonpayable",
      "type": "constructor"
    },
    {
      "inputs": [
        {
          "internalType": "uint256",
          "name": "healthFactor",
          "type": "uint256"
        }
      ],
      "name": "DSCEngine__BreaksHealthFactor",
      "type": "error"
    },
    {
      "inputs": [],
      "name": "DSCEngine__MintFailed",
      "type": "error"
    },
    {
      "inputs": [],
      "name": "DSCEngine__NeedsMoreThanZero",
      "type": "error"
    },
    {
      "inputs": [],
      "name": "DSCEngine__NotAllowedToken",
      "type": "error"
    },
    {
      "inputs": [],
      "name": "DSCEngine__TokenAddressAndPriceFeedAddressesMustBeSameLength",
      "type": "error"
    },
    {
      "inputs": [],
      "name": "DSCEngine__Transferfailed",
      "type": "error"
    },
    {
      "anonymous": false,
      "inputs": [
        {
          "indexed": true,
          "internalType": "address",
          "name": "user",
          "type": "address"
        },
        {
          "indexed": true,
          "internalType": "address",
          "name": "token",
          "type": "address"
        },
        {
          "indexed": true,
          "internalType": "uint256",
          "name": "amount",
          "type": "uint256"
        }
      ],
      "name": "CollateralDeposited",
      "type": "event"
    },
    {
      "anonymous": false,
      "inputs": [
        {
          "indexed": true,
          "internalType": "address",
          "name": "redeemFrom",
          "type": "address"
        },
        {
          "indexed": true,
          "internalType": "address",
          "name": "redeemTo",
          "type": "address"
        },
        {
          "indexed": false,
          "internalType": "address",
          "name": "token",
          "type": "address"
        },
        {
          "indexed": false,
          "internalType": "uint256",
          "name": "amount",
          "type": "uint256"
        }
      ],
      "name": "CollateralRedeemed",
      "type": "event"
    },
    {
      "inputs": [],
      "name": "burnPd",
      "outputs": [],
      "stateMutability": "nonpayable",
      "type": "function"
    },
    {
      "inputs": [
        {
          "internalType": "address",
          "name": "_tokenCollateralAddress",
          "type": "address"
        },
        {
          "internalType": "uint256",
          "name": "_amountCollateral",
          "type": "uint256"
        }
      ],
      "name": "depositCollateral",
      "outputs": [],
      "stateMutability": "nonpayable",
      "type": "function"
    },
    {
      "inputs": [],
      "name": "depositCollateralAndMintPd",
      "outputs": [],
      "stateMutability": "nonpayable",
      "type": "function"
    },
    {
      "inputs": [
        {
          "internalType": "address",
          "name": "_user",
          "type": "address"
        }
      ],
      "name": "getAccountCollateralValue",
      "outputs": [
        {
          "internalType": "uint256",
          "name": "totalCollateralValueInUsd",
          "type": "uint256"
        }
      ],
      "stateMutability": "view",
      "type": "function"
    },
    {
      "inputs": [],
      "name": "getHealthFactor",
      "outputs": [],
      "stateMutability": "view",
      "type": "function"
    },
    {
      "inputs": [],
      "name": "liquidate",
      "outputs": [],
      "stateMutability": "nonpayable",
      "type": "function"
    },
    {
      "inputs": [
        {
          "internalType": "uint256",
          "name": "_amountPdToMint",
          "type": "uint256"
        }
      ],
      "name": "mintPd",
      "outputs": [],
      "stateMutability": "nonpayable",
      "type": "function"
    },
    {
      "inputs": [],
      "name": "redeemCollateral",
      "outputs": [],
      "stateMutability": "nonpayable",
      "type": "function"
    },
    {
      "inputs": [],
      "name": "redeemCollateralforPd",
      "outputs": [],
      "stateMutability": "nonpayable",
      "type": "function"
    }
  ],
  "transactionHash": "0x5ae26083da5068a2af8fcb240a592fb2e5851cf87f1690a04de5e6aa91ee4831",
  "args": [
    [
      "0xe7f1725E7734CE288F8367e1Bb143E90bb3F0512",
      "0xCf7Ed3AccA5a467e9e704C703E8D87F634fB0Fc9"
    ],
    [
      "0x5FbDB2315678afecb367f032d93F642f64180aa3",
      "0x9fE46736679d2D9a65F0992F2272dE9f3c7fa6e0"
    ],
    "0xDc64a140Aa3E981100a9becA4E685f962f0cF6C9"
  ],
  "numDeployments": 1,
  "solcInputHash": "dd26b9b410d3bd9a8c2030554eb00084",
  "bytecode": "0x60a06040523480156200001157600080fd5b506040516200142738038062001427833981810160405281019062000037919062000402565b600160008190555081518351146200007b576040517fc72d4a5100000000000000000000000000000000000000000000000000000000815260040160405180910390fd5b60005b8351811015620001d6578281815181106200009e576200009d6200049c565b5b602002602001015160016000868481518110620000c057620000bf6200049c565b5b602002602001015173ffffffffffffffffffffffffffffffffffffffff1673ffffffffffffffffffffffffffffffffffffffff16815260200190815260200160002060006101000a81548173ffffffffffffffffffffffffffffffffffffffff021916908373ffffffffffffffffffffffffffffffffffffffff16021790555060048482815181106200015857620001576200049c565b5b60200260200101519080600181540180825580915050600190039060005260206000200160009091909190916101000a81548173ffffffffffffffffffffffffffffffffffffffff021916908373ffffffffffffffffffffffffffffffffffffffff1602179055508080620001cd9062000504565b9150506200007e565b508073ffffffffffffffffffffffffffffffffffffffff1660808173ffffffffffffffffffffffffffffffffffffffff168152505050505062000551565b6000604051905090565b600080fd5b600080fd5b600080fd5b6000601f19601f8301169050919050565b7f4e487b7100000000000000000000000000000000000000000000000000000000600052604160045260246000fd5b62000278826200022d565b810181811067ffffffffffffffff821117156200029a57620002996200023e565b5b80604052505050565b6000620002af62000214565b9050620002bd82826200026d565b919050565b600067ffffffffffffffff821115620002e057620002df6200023e565b5b602082029050602081019050919050565b600080fd5b600073ffffffffffffffffffffffffffffffffffffffff82169050919050565b60006200032382620002f6565b9050919050565b620003358162000316565b81146200034157600080fd5b50565b60008151905062000355816200032a565b92915050565b6000620003726200036c84620002c2565b620002a3565b90508083825260208201905060208402830185811115620003985762000397620002f1565b5b835b81811015620003c55780620003b0888262000344565b8452602084019350506020810190506200039a565b5050509392505050565b600082601f830112620003e757620003e662000228565b5b8151620003f98482602086016200035b565b91505092915050565b6000806000606084860312156200041e576200041d6200021e565b5b600084015167ffffffffffffffff8111156200043f576200043e62000223565b5b6200044d86828701620003cf565b935050602084015167ffffffffffffffff81111562000471576200047062000223565b5b6200047f86828701620003cf565b9250506040620004928682870162000344565b9150509250925092565b7f4e487b7100000000000000000000000000000000000000000000000000000000600052603260045260246000fd5b7f4e487b7100000000000000000000000000000000000000000000000000000000600052601160045260246000fd5b6000819050919050565b60006200051182620004fa565b91507fffffffffffffffffffffffffffffffffffffffffffffffffffffffffffffffff8203620005465762000545620004cb565b5b600182019050919050565b608051610eba6200056d60003960006105b60152610eba6000f3fe608060405234801561001057600080fd5b50600436106100935760003560e01c8063a5f352b711610066578063a5f352b7146100f8578063a653447014610102578063b0d2856e1461010c578063f45a67e014610128578063f7a3d9511461013257610093565b806328a070251461009857806361b0c4fa146100a25780637d1a4450146100ac578063a5d5db0c146100dc575b600080fd5b6100a061013c565b005b6100aa61013e565b005b6100c660048036038101906100c191906109b5565b610140565b6040516100d391906109fb565b60405180910390f35b6100f660048036038101906100f19190610a42565b61024b565b005b61010061050c565b005b61010a61050e565b005b61012660048036038101906101219190610a82565b610510565b005b610130610698565b005b61013a61069a565b005b565b565b600080600090505b6004805490508110156102455760006004828154811061016b5761016a610aaf565b5b9060005260206000200160009054906101000a900473ffffffffffffffffffffffffffffffffffffffff1690506000600260008673ffffffffffffffffffffffffffffffffffffffff1673ffffffffffffffffffffffffffffffffffffffff16815260200190815260200160002060008373ffffffffffffffffffffffffffffffffffffffff1673ffffffffffffffffffffffffffffffffffffffff168152602001908152602001600020549050610223828261069c565b8461022e9190610b0d565b93505050808061023d90610b41565b915050610148565b50919050565b8060008103610286576040517fcb1d3f7d00000000000000000000000000000000000000000000000000000000815260040160405180910390fd5b82600073ffffffffffffffffffffffffffffffffffffffff16600160008373ffffffffffffffffffffffffffffffffffffffff1673ffffffffffffffffffffffffffffffffffffffff16815260200190815260200160002060009054906101000a900473ffffffffffffffffffffffffffffffffffffffff1673ffffffffffffffffffffffffffffffffffffffff160361034c576040517fa802cfbe00000000000000000000000000000000000000000000000000000000815260040160405180910390fd5b6103546107b1565b82600260003373ffffffffffffffffffffffffffffffffffffffff1673ffffffffffffffffffffffffffffffffffffffff16815260200190815260200160002060008673ffffffffffffffffffffffffffffffffffffffff1673ffffffffffffffffffffffffffffffffffffffff16815260200190815260200160002060008282546103e09190610b0d565b92505081905550828473ffffffffffffffffffffffffffffffffffffffff163373ffffffffffffffffffffffffffffffffffffffff167ff1c0dd7e9b98bbff859029005ef89b127af049cd18df1a8d79f0b7e019911e5660405160405180910390a460008473ffffffffffffffffffffffffffffffffffffffff166323b872dd3330876040518463ffffffff1660e01b815260040161048193929190610b98565b6020604051808303816000875af11580156104a0573d6000803e3d6000fd5b505050506040513d601f19601f820116820180604052508101906104c49190610c07565b9050806104fd576040517f026e78cb00000000000000000000000000000000000000000000000000000000815260040160405180910390fd5b50610506610800565b50505050565b565b565b806000810361054b576040517fcb1d3f7d00000000000000000000000000000000000000000000000000000000815260040160405180910390fd5b6105536107b1565b81600360003373ffffffffffffffffffffffffffffffffffffffff1673ffffffffffffffffffffffffffffffffffffffff16815260200190815260200160002060008282546105a29190610b0d565b925050819055506105b23361080a565b60007f000000000000000000000000000000000000000000000000000000000000000073ffffffffffffffffffffffffffffffffffffffff166340c10f1933856040518363ffffffff1660e01b815260040161060f929190610c34565b6020604051808303816000875af115801561062e573d6000803e3d6000fd5b505050506040513d601f19601f820116820180604052508101906106529190610c07565b90508061068b576040517f30eb0fc900000000000000000000000000000000000000000000000000000000815260040160405180910390fd5b50610694610800565b5050565b565b565b600080600160008573ffffffffffffffffffffffffffffffffffffffff1673ffffffffffffffffffffffffffffffffffffffff16815260200190815260200160002060009054906101000a900473ffffffffffffffffffffffffffffffffffffffff16905060008173ffffffffffffffffffffffffffffffffffffffff1663feaf968c6040518163ffffffff1660e01b815260040160a060405180830381865afa15801561074e573d6000803e3d6000fd5b505050506040513d601f19601f820116820180604052508101906107729190610cea565b505050915050670de0b6b3a7640000846402540be400836107939190610d65565b61079d9190610d65565b6107a79190610dd6565b9250505092915050565b6002600054036107f6576040517f08c379a00000000000000000000000000000000000000000000000000000000081526004016107ed90610e64565b60405180910390fd5b6002600081905550565b6001600081905550565b600061081582610861565b9050600181101561085d57806040517fe580cc6100000000000000000000000000000000000000000000000000000000815260040161085491906109fb565b60405180910390fd5b5050565b600080600061086f84610886565b9150915061087d82826108db565b92505050919050565b600080600360008473ffffffffffffffffffffffffffffffffffffffff1673ffffffffffffffffffffffffffffffffffffffff1681526020019081526020016000205491506108d483610140565b9050915091565b600080830361090c577fffffffffffffffffffffffffffffffffffffffffffffffffffffffffffffffff905061094c565b6000606460328461091d9190610d65565b6109279190610dd6565b905083670de0b6b3a76400008261093e9190610d65565b6109489190610dd6565b9150505b92915050565b600080fd5b600073ffffffffffffffffffffffffffffffffffffffff82169050919050565b600061098282610957565b9050919050565b61099281610977565b811461099d57600080fd5b50565b6000813590506109af81610989565b92915050565b6000602082840312156109cb576109ca610952565b5b60006109d9848285016109a0565b91505092915050565b6000819050919050565b6109f5816109e2565b82525050565b6000602082019050610a1060008301846109ec565b92915050565b610a1f816109e2565b8114610a2a57600080fd5b50565b600081359050610a3c81610a16565b92915050565b60008060408385031215610a5957610a58610952565b5b6000610a67858286016109a0565b9250506020610a7885828601610a2d565b9150509250929050565b600060208284031215610a9857610a97610952565b5b6000610aa684828501610a2d565b91505092915050565b7f4e487b7100000000000000000000000000000000000000000000000000000000600052603260045260246000fd5b7f4e487b7100000000000000000000000000000000000000000000000000000000600052601160045260246000fd5b6000610b18826109e2565b9150610b23836109e2565b9250828201905080821115610b3b57610b3a610ade565b5b92915050565b6000610b4c826109e2565b91507fffffffffffffffffffffffffffffffffffffffffffffffffffffffffffffffff8203610b7e57610b7d610ade565b5b600182019050919050565b610b9281610977565b82525050565b6000606082019050610bad6000830186610b89565b610bba6020830185610b89565b610bc760408301846109ec565b949350505050565b60008115159050919050565b610be481610bcf565b8114610bef57600080fd5b50565b600081519050610c0181610bdb565b92915050565b600060208284031215610c1d57610c1c610952565b5b6000610c2b84828501610bf2565b91505092915050565b6000604082019050610c496000830185610b89565b610c5660208301846109ec565b9392505050565b600069ffffffffffffffffffff82169050919050565b610c7c81610c5d565b8114610c8757600080fd5b50565b600081519050610c9981610c73565b92915050565b6000819050919050565b610cb281610c9f565b8114610cbd57600080fd5b50565b600081519050610ccf81610ca9565b92915050565b600081519050610ce481610a16565b92915050565b600080600080600060a08688031215610d0657610d05610952565b5b6000610d1488828901610c8a565b9550506020610d2588828901610cc0565b9450506040610d3688828901610cd5565b9350506060610d4788828901610cd5565b9250506080610d5888828901610c8a565b9150509295509295909350565b6000610d70826109e2565b9150610d7b836109e2565b9250828202610d89816109e2565b91508282048414831517610da057610d9f610ade565b5b5092915050565b7f4e487b7100000000000000000000000000000000000000000000000000000000600052601260045260246000fd5b6000610de1826109e2565b9150610dec836109e2565b925082610dfc57610dfb610da7565b5b828204905092915050565b600082825260208201905092915050565b7f5265656e7472616e637947756172643a207265656e7472616e742063616c6c00600082015250565b6000610e4e601f83610e07565b9150610e5982610e18565b602082019050919050565b60006020820190508181036000830152610e7d81610e41565b905091905056fea26469706673582212203f36a5ad9f34d7c05259c599ff77b822acba49bca0f02f503132cdea22d37ad864736f6c63430008130033",
  "devdoc": {
    "kind": "dev",
    "methods": {},
    "version": 1
  },
  "userdoc": {
    "kind": "user",
    "methods": {},
    "version": 1
  },
  "storageLayout": {
    "storage": [
      {
        "astId": 169,
        "contract": "contracts/DSCEngine.sol:DSCEngine",
        "label": "_status",
        "offset": 0,
        "slot": "0",
        "type": "t_uint256"
      },
      {
        "astId": 1024,
        "contract": "contracts/DSCEngine.sol:DSCEngine",
        "label": "s_priceFeeds",
        "offset": 0,
        "slot": "1",
        "type": "t_mapping(t_address,t_address)"
      },
      {
        "astId": 1030,
        "contract": "contracts/DSCEngine.sol:DSCEngine",
        "label": "s_collateralDeposited",
        "offset": 0,
        "slot": "2",
        "type": "t_mapping(t_address,t_mapping(t_address,t_uint256))"
      },
      {
        "astId": 1034,
        "contract": "contracts/DSCEngine.sol:DSCEngine",
        "label": "s_PdMinted",
        "offset": 0,
        "slot": "3",
        "type": "t_mapping(t_address,t_uint256)"
      },
      {
        "astId": 1037,
        "contract": "contracts/DSCEngine.sol:DSCEngine",
        "label": "s_collateralTokens",
        "offset": 0,
        "slot": "4",
        "type": "t_array(t_address)dyn_storage"
      }
    ],
    "types": {
      "t_address": {
        "encoding": "inplace",
        "label": "address",
        "numberOfBytes": "20"
      },
      "t_array(t_address)dyn_storage": {
        "base": "t_address",
        "encoding": "dynamic_array",
        "label": "address[]",
        "numberOfBytes": "32"
      },
      "t_mapping(t_address,t_address)": {
        "encoding": "mapping",
        "key": "t_address",
        "label": "mapping(address => address)",
        "numberOfBytes": "32",
        "value": "t_address"
      },
      "t_mapping(t_address,t_mapping(t_address,t_uint256))": {
        "encoding": "mapping",
        "key": "t_address",
        "label": "mapping(address => mapping(address => uint256))",
        "numberOfBytes": "32",
        "value": "t_mapping(t_address,t_uint256)"
      },
      "t_mapping(t_address,t_uint256)": {
        "encoding": "mapping",
        "key": "t_address",
        "label": "mapping(address => uint256)",
        "numberOfBytes": "32",
        "value": "t_uint256"
      },
      "t_uint256": {
        "encoding": "inplace",
        "label": "uint256",
        "numberOfBytes": "32"
      }
    }
  }
}